:100000000C9420050C943D050C943D050C943D0585
:100010000C943D050C943D050C943D050C943D0558
:100020000C943D050C943D050C94D30F0C94150FC6
:100030000C94B7230C943D050C943D050C943D05A0
:100040000C943D050C943D050C943D050C943D0528
:100050000C943D050C94DD100C943D050C943D056D
:100060000C943D050C943D050C943D050C943D0508
:100070000C943D050C943D050C943D050C943D05F8
:100080000C943D050C943D050C943D050C943D05E8
:100090000C943D050C943D050C943D050C943D05D8
:1000A0000C943D050C943D050C943D05F008F008BA
:1000B000230923098E09AC09B60AB60AB7092B0A27
:1000C0003C0A3C0A280D4F0DFD0E4F0DFD0E9B0DF9
:1000D000BE0DFD0EB30EC30E9E26A326AD26A12691
:1000E000A626AB26A926552858285B285E28612815
:1000F00064286728000000000000000000000000E5
:1001000000000000000000000000000000000000EF
:1001100000000000000000007E0F00D4FFFFFFC7BA
:100120000000007800000000000000002A2B2800DA
:100130000000000000000000000000000000002996
:10014000000000002C1E3420212224342627252ED6
:10015000362D3738271E1F2021222324252633330E
:10016000362E37381F0405060708090A0B0C0D0E3A
:100170000F101112131415161718191A1B1C1D2F06
:100180003130232D350405060708090A0B0C0D0E26
:100190000F101112131415161718191A1B1C1D2FE6
:1001A0003130354C0102E00102E30101140103E3A7
:1001B0000103E00005010980A101850319012AB7A7
:1001C00000150126B700950175108100C0050C09C6
:1001D00001A101850419012AA002150126A002959A
:1001E0000175108100C005010906A10185060507FA
:1001F00019E029E715002501950875018102050719
:10020000190029EF1500250195F0750181020508F7
:100210001901290595057501910295017503910153
:10022000C005010902A1010901A10005091901295F
:10023000081500250195087501810205010930099D
:10024000311581257F9502750881060938158125AC
:100250007F950175088106050C0A38021581257FF6
:10026000950175088106C0C00660FF0961A10109FA
:1002700062150026FF0095207508810209631500AC
:1002800026FF00952075089102C005010906A1010D
:10029000050719E029E71500250195087501810278
:1002A0009501750881010507190029FF150026FF32
:1002B0000095067508810005081901290595057541
:1002C000019102950175039101C0090274000401B6
:1002D00000A0FA0904000001030101000921110135
:1002E0000001224000070581030800010904010004
:1002F000020300000009211101000122220007056C
:100300008303200001070504032000010904020003
:100310000103010200092111010001224700070524
:100320008203080001090403000103000000092101
:1003300011010001226D0007058503200001120153
:100340000002000000089732764901000102000116
:1003500020034500720067006F0044006F007800C2
:10036000200045005A00200047006C006F00770015
:10037000000028035A00530041002000540065008B
:10038000630068006E006F006C006F00670079000A
:1003900020004C00610062007300000004030904A7
:1003A00029004C00E000E100035400001E0014008E
:1003B00004001D0002534D001F001A0016001B0010
:1003C00001532A002000080007000600E2002C006C
:1003D0002100150009001900E3004A00220017005F
:1003E0000A00050000004B005000E3040000E00894
:1003F00000004E004F00BA5D0000E2010000350031
:1004000023001C000B001100000034002400180021
:100410000D00100052002E0025000C000E003600CA
:1004200051002800260012000F0037002F002B007B
:10043000270013003300380030002D002D0031005C
:100440003400E300B95D0000290001000100010053
:10045000010000003A001E02200222020100B85DE5
:100460003B001F02210223020100B75D3C002F0266
:1004700026022F000100CB5C3D0030022702300035
:100480000100B65D3E00310235003502000001007A
:100490000100010000000100000001000100010056
:1004A00000000100000001003F0052005100240242
:1004B0000000B55D4000240021001E000100B45D75
:1004C0004100250022001F003700C65C42002600C4
:1004D000230020002700C75C430025022E023100C4
:1004E0002E00010001004500010001000100000094
:1004F00001000100010001000100000001000100F5
:10050000010001000100010001000100EF000100F5
:10051000010001000100ED00EE000100F10001000A
:1005200001000100F0000100F200010001000100E3
:1005300001000100000001000100010000000100B5
:1005400000000100010001000000010000000100A6
:100550000100010001000100000001000100010094
:1005600001000100A9000100010001000100AC0030
:10057000AA00B600010001000100AB00A8000100C4
:100580000100010001000100010001000100010063
:10059000AE000100010000000100010001000100A7
:1005A0000100000001000100010001000100010044
:1005B0000100010001000100010001000100010033
:1005C0000100010001000100010001000100010023
:1005D0000100010001000100010001000000010014
:1005E0000100010000000100000001000100010005
:1005F00000000100000001000100010050000100A6
:100600000000010001000100520001000100010092
:100610000100010051000100010001000100010082
:100620004F00010001000100010001000100010074
:1006300001000100010001000100010001000000B3
:1006400000443454007464840055456500857595F4
:100650000036264600665676009686A6003727475F
:10066000007767870038284800887898003929493A
:1006700000695979009989A9003A2A4A006A5A7A88
:10068000003B2B4B006B5B7B004C3C5C007C6C8C20
:10069000005D4D6D008D7D9D003E2E4E006E5E7E98
:1006A0000144345401746484015545650185759590
:1006B0000136264601665676019686A601372747FB
:1006C00001776787013828480188789801392949D6
:1006D00001695979019989A9013A2A4A016A5A7A24
:1006E000013B2B4B016B5B7B014C3C5C017C6C8CBC
:1006F000015D4D6D018D7D9D013E2E4E016E5E7E34
:10070000BCFFFFBCFFFFBCFFFFBCFFFFBCFFFFBC8B
:10071000FFFFBCFFFFBCFFFFBCFFFFBCFFFFBCFF38
:10072000FFBCFFFFBCFFFFBCFFFFBCFFFFBCFFFF28
:10073000BCFFFFBCFFFFBCFFFFBCFFFFBCFFFFBC5B
:10074000FFFFBCFFFFBCFFFFBCFFFFBCFFFFBCFF08
:10075000FFBCFFFFBCFFFFBCFFFFBCFFFFBCFFFFF8
:10076000BCFFFFBCFFFFBCFFFFBCFFFFBCFFFFBC2B
:10077000FFFFBCFFFFBCFFFFBCFFFFBCFFFFBCFFD8
:10078000FFBCFFFFBCFFFFBCFFFFBCFFFFBCFFFFC8
:1007900029FFFF29FFFF29FFFF29FFFF29FFFF296D
:1007A000FFFF29FFFF29FFFF29FFFF29FFFF29FF87
:1007B000FF29FFFF29FFFF29FFFF29FFFF29FFFF77
:1007C00029FFFF29FFFF29FFFF29FFFF29FFFF293D
:1007D000FFFF29FFFF29FFFF29FFFF29FFFF29FF57
:1007E000FF29FFFF29FFFF29FFFF29FFFF29FFFF47
:1007F00029FFFF29FFFF29FFFF29FFFF29FFFF290D
:10080000FFFF29FFFF29FFFF29FFFF29FFFF29FF26
:10081000FF29FFFF29FFFF29FFFF29FFFF29FFFF16
:1008200000F5F500F5F500F5F500F5F500F5F50036
:10083000F5F500F5F500F5F500F5F500F5F500F531
:10084000F500F5F500F5F500F5F500F5F500F5F521
:1008500000F5F500F5F500F5F500F5F500F5F50006
:10086000F5F500F5F500F5F500F5F500F5F500F501
:10087000F500F5F500F5F500F5F500F5F500F5F5F1
:1008800000F5F500F5F500F5F500F5F500F5F500D6
:10089000F5F500F5F500F5F500F5F500F5F500F5D1
:1008A000F500F5F500F5F500F5F500F5F500F5F5C1
:1008B00083FFFF83FFFF83FFFF83FFFF83FFFF8330
:1008C000FFFF83FFFF83FFFF83FFFF83FFFF83FFA4
:1008D000FF83FFFF83FFFF83FFFF83FFFF83FFFF94
:1008E00083FFFF83FFFF83FFFF83FFFF83FFFF8300
:1008F000FFFF83FFFF83FFFF83FFFF83FFFF83FF74
:10090000FF83FFFF83FFFF83FFFF83FFFF83FFFF63
:1009100083FFFF83FFFF83FFFF83FFFF83FFFF83CF
:10092000FFFF83FFFF83FFFF83FFFF83FFFF83FF43
:10093000FF83FFFF83FFFF83FFFF83FFFF83FFFF33
:100940000001010101010101010102020202020292
:100950000202020303030303030303040404040465
:10096000040405050505050606060606070707072C
:100970000708080808090909090A0A0A0B0B0B0CE1
:100980000C0C0D0D0D0E0E0E0F0F0F10101111117E
:1009900012121313141415151616171718181919FF
:1009A0001A1A1B1B1C1D1D1E1E1F20202122222364
:1009B0002424252626272829292A2B2C2D2D2E2FA5
:1009C00030313232333435363738393A3B3C3D3EBC
:1009D0003F404142434445464748494A4C4D4E4FAB
:1009E00050515354555658595A5B5D5E5F6162646D
:1009F000656668696B6C6D6F7072737577787A7BFA
:100A00007D7E8082838587888A8C8E8F9193959650
:100A1000989A9C9EA0A2A3A5A7A9ABADAFB1B3B570
:100A2000B7BABCBEC0C2C4C6C9CBCDCFD1D4D6D84C
:100A3000DBDDDFE2E4E7E9EBEEF0F3F5F8FAFDFFEA
:100A400011241FBECFEFDAE0DEBFCDBF12E0A0E081
:100A5000B1E0E4EEFCE602C005900D92A236B107CB
:100A6000D9F725E0A2E6B2E001C01D92A23DB2078F
:100A7000E1F70E94771D0C9470360C940000A5E2FB
:100A8000B0E0E5E4F5E00C942B32FC01808191812B
:100A900023813481232B31F09F3F31F491E08F3F4C
:100AA00019F403C091E001C090E090FD9DC57F0165
:100AB00085E0DE01919601900D928A95E1F7D701CC
:100AC00012962C9189A19AA1222349F00E94F92C17
:100AD000182F682F89A19AA10E94692D03C00E9436
:100AE000352D182F69A17AA1812F0E9491178C01B1
:100AF0009091C305F7018281992309F44DC08111BA
:100B00000DC3E0916402E330A0F481E08E0F809386
:100B10006402F0E0EE0FFF1FE85EFB4FD7018D91FE
:100B20009C919183808382E08983CE0101960E940B
:100B3000872FBFEFE3EDF0E3B150E040F040E1F785
:100B400000C0000080916402833009F0E7C2109277
:100B50006402EEE1F4E0A8E1B4E084E294E03181E3
:100B600011962C91119732132EC030812C91321393
:100B70002AC0329612968E179F0789F784E08983E0
:100B800081E08093C4058EEF8A831092C305CE0165
:100B900001960E94872FC2C29091C4059923C1F08B
:100BA000882311F086E001C087E08983D7018C910A
:100BB0008A8311968C918B838EEF8C83CE01019664
:100BC0000E94872F05C083E089831092C405DBCF84
:100BD000F7018281033BFDE51F07D1F5882309F466
:100BE0003EC09091290481E0890F8770987F8530FD
:100BF00020F4892B8093290402C0909329048091CA
:100C000029048770BFEF8B9FC001112495958795AC
:100C10009595879599279093890080938800909364
:100C20008B0080938A0090938D0080938C0040917C
:100C3000290450912A0460912B0470912C048FE0B8
:100C400090E00E940B33809128040E948826F1C115
:100C5000043B2DE5120709F09EC08111B4C08091BC
:100C60006F0282720B3C9CE5190709F483C098F56A
:100C7000063CBCE51B0709F469C0B8F4043CFCE57C
:100C80001F0709F459C008F05CC0033C3CE513079A
:100C900009F056C29091C80581E089278093C80564
:100CA000109220018091C70543C0083C9CE51907BC
:100CB00009F456C008F44FC0093CBCE51B0709F411
:100CC00054C00A3CECE51E0709F03AC242E453E284
:100CD0006FE473E25DC0003DFCE51F0709F46FC0DF
:100CE00098F40D3C3CE5130709F44EC008F447C0E6
:100CF0000E3CACE51A0709F460C00F3CBCE51B07CD
:100D000009F01EC285E05CC0073DECE51E0738F423
:100D1000023DFCE51F0708F001C282E151C00F351A
:100D20002DE5120709F4FAC10BC29FEF9093CD0590
:100D300081608093C705F2C14AE853E264E973E237
:100D400027C044E953E26AE873E222C046E753E26F
:100D500060E873E21DC040E853E266E773E218C042
:100D60004CE553E269E673E213C049E653E26CE5F1
:100D700073E20EC04FE453E262E473E209C04CE553
:100D800051E26AE671E204C04AE651E26CE571E2C2
:100D90000E946124C3C1033C3CE5130799F1073B62
:100DA000EDE51E0709F42DC108F047C0053B2DE510
:100DB0001207E9F5882309F4B1C181E001C08DE093
:100DC0000E94C724ABC18091290483FB222720F90C
:100DD00091E0922790FB83F980932904992329F0CD
:100DE00040E060E080E00E94981140912904509119
:100DF0002A0460912B0470912C048FE090E00E94F3
:100E00000B3317C1882309F489C19091CD058091D6
:100E1000C7059F3F09F089CF1092CD05816080936F
:100E2000C70540E060E080E00E94981177C1063B72
:100E30003DE5130709F4DAC0FCC0093B9DE519073D
:100E400041F008F4EBC00A3BBDE51B0709F4C4C040
:100E5000F0C0882309F403CF24EAC22E21E0D22E69
:100E60003AE0432EF6012491222309F4E2C0213016
:100E700009F04EC031968491813069F4F2E0CF0ED2
:100E8000D11CF6018491893319F460E570E09CC0AF
:100E900060E070E099C0823041F4F2E0CF0ED11CE6
:100EA000F60184910E94772E93C0833041F4F2E0E2
:100EB000CF0ED11CF60184910E94422E89C084304D
:100EC00009F085C0F2E0CF0ED11CF601249180E03C
:100ED00090E030E0205331092A30310570F4489E0B
:100EE000A001499E500D1124C901840F951FFFEFE9
:100EF000CF1ADF0AF6012491ECCF009709F468C0FD
:100F0000AFE9BFE01197F1F700C000000197F5CFFE
:100F1000E22FF0E0EC5DFE4F5490822F869586958F
:100F2000869590E0FC01EC5EFE4F64902770712C7A
:100F3000022E02C0759467940A94E2F7B1E06B2226
:100F40007724FC01EC5FFE4F8490912C022E02C0AE
:100F5000959487940A94E2F7E1E08E229924FC01AB
:100F6000EC50FF4FA490B12C02C0B594A7942A95E1
:100F7000E2F7F1E0AF22BB246114710419F081EEB5
:100F80000E94772E8114910409F425C386EE0E94F5
:100F9000772E29E3521609F418C360E070E0852D1E
:100FA0000E941C2F8114910419F086EE0E94422E9B
:100FB0006114710419F081EE0E94422EA114B10453
:100FC00039F060E070E08CE20E941C2F01C06F01DC
:100FD0003FEFC31AD30A46CF882319F081E292E08B
:100FE00002C080E090E00E94082498C0882309F4A1
:100FF00095C081E00E94C72440E86FEF86E590E04D
:101000000AC0882309F48AC081E00E94C7244FEFF8
:101010006FEF8CEA90E00E94342F80C0882309F49F
:101020007DC081E00E94C7244FEF6FEF8BE190E01D
:10103000F2CFD70112968C91882309F410CE0C358B
:101040003DE5130709F464C060F401159CE5190738
:10105000A9F00F3DACE51A0709F072C00E944619CD
:101060004CC00E35BDE51B0709F44AC008F452C058
:10107000093AFDE51F0709F440C062C010926F02F3
:101080000E941D2E2FEF34E38CE021503040804031
:10109000E1F700C00000F89481E08093E00080E276
:1010A0008093D8001092C900AFE1BEE41197F1F728
:1010B00000C000001DBA109268001CBC10BE1FBA10
:1010C00010927A0010926E0010926F0010927100D0
:1010D000109272001092C9001092BC0014B817B898
:1010E0001AB81DB810BA1092BC0015B818B81BB8C1
:1010F0001EB811BA0C94003F11C00E9470260EC099
:1011000080916A0282FB882780F991E0892703C0D9
:1011100081E001C080E00E943B1A12C08091BB03B5
:10112000877009F461C2F7018281882309F45CC2E7
:1011300080916A0282FF58C282E00E941E1A54C245
:10114000F701828100811181882349F0C8010E9442
:10115000F92CD82E682FC8010E94692D04C0C8013F
:101160000E94352DD82EB8018D2D0E9491170E9416
:10117000AA17B82E192F982ED70112960C911297F4
:101180001596AC90A2949FE0A9228091BB03877032
:10119000B9F00023A9F0812F807F803421F080E214
:1011A0008B0D883068F080916A0282FF09C082E06E
:1011B0000E941E1A8091BB038770DD24D394811195
:1011C000D12CC12EC2948FE0C8228C2D90E08C309F
:1011D000910508F0CBC1FC01EA5AFF4F0C943C3555
:1011E000812F807F1F70882311F01295107F0023BC
:1011F000B9F0112309F4A8C180E28B0D883010F0FA
:10120000911006C080916F02182B10936F0205C0D9
:101210008091DC03182B1093DC030E94C91994C140
:101220008B2D0E94422E112309F4A0C180E28B0D68
:10123000883080F1992071F110958091DC0318239A
:101240001093DC032AC0812F807F1F70803211F041
:101250001295107F8B2D992021F0B1E09B16D9F1CA
:1012600047C080916A0282FD1BC0002369F01123F0
:1012700039F080916F02182B10936F020E94C919E8
:1012800080E00E94772E72C180E00E94422E1123DE
:1012900009F46CC1812F0E94C2190E94C91966C14C
:1012A000002381F08091DD03AA2051F0E1E0AE122D
:1012B00007C0182B181709F459C11093DD0356C144
:1012C000812B10C0AA2021F0F1E0AF1609F44EC125
:1012D0000E94BC191FC0002341F021E02A1508F428
:1012E00045C1812F0E94382E41C1A1103FC112C0BB
:1012F000002319F0AA20A9F327C1AA2059F08933A5
:1013000009F031C13FEF87EE93E0315080409040CB
:10131000E1F727C1812F0E94312E28C1812F8695A8
:101320008695837019F0813061F020C1002321F08F
:101330008B2D912F937002C080E090E00E941E24BC
:101340001BC1002321F08B2D912F937002C080E0F0
:1013500090E00E94082410C18B2D002319F00E94F8
:101360005B2C02C00E94A12B0E94B62C05C1812FCC
:101370008370A9F50111FEC04B2D4295469547702B
:10138000440F440F8B2D8F7090E09C01042E01C000
:10139000220F0A94EAF7B4FE08C08FE090E001C083
:1013A000880F4A95EAF7809501C080E0169516955A
:1013B0001370123069F088F49091DE03113019F047
:1013C000822B892302C0922B892B0E94E12DD2C04F
:1013D000822B9091DE038927F8CF822BF6CF002352
:1013E00019F0812F817001C08695882309F4C2C04D
:1013F0004B2D429546954770440F440F8B2D8F70AF
:1014000090E09C01042E01C0220F0A94EAF7B4FE7A
:1014100008C08FE090E001C0880F4A95EAF78095F8
:1014200001C080E0169516951370123059F078F4CB
:1014300090912804113019F0822B892309C0922B36
:10144000892B06C0822B90912804892701C0822B0A
:101450000E949E2D8FC01F70002339F0812F0E94A3
:10146000D52D8B2D0E94382E85C08B2D0E94312EBC
:10147000812F0E94C82D7EC08B2DA2EF9A1669F194
:10148000A91538F0B0EF9B1659F0E1EF9E1601F167
:1014900057C0F3EF9F1641F124EF9216A9F050C008
:1014A000002369F0A11062C01F7181E090E001C0CB
:1014B000880F1A95EAF79091280489271FC031E018
:1014C0003A1508F453C0F0CF80916A0282FD19C02A
:1014D000002329F0812F8F7126C00023D9F3812F9B
:1014E0008F710E94C82D42C0002339F01F7181E026
:1014F00001C0880F1A95EAF701C080E00E949E2D76
:1015000035C0002399F01F71812F0E94D52D809145
:101510006A0282FF07C0A8E01A9FC00111248360FD
:101520008093BB03812F0E94D52D20C081E00E94B3
:101530001E1AB1E0BA15D0F482E00E941E1A16C03D
:10154000002321F0AA2031F28B2D9BCEAA2039F264
:10155000893349F4EFEFF7EE23E0E150F04020400B
:10156000E1F700C000008B2D0E94422E88EF8C0D09
:10157000843010F40E943424DD20B1F08091BB034C
:1015800080FD12C0D70112961C9285958595859590
:101590000E94D52DC7010E943F058091BB03859510
:1015A000859585950E94C82D85E0F701DE0111968D
:1015B00001900D928A95E1F709811A81C8010E9474
:1015C000352DB8010E9491170FC060E570E089E3E6
:1015D0000E941C2FEACCF9E35F12DFCC60E570E0DB
:1015E00089E30E941C2FE4CCA596E0E10C944732DD
:1015F0008091950287FF11C08091E80082FD05C0AF
:101600008091C6058111F8CF11C08091E8008B77D9
:101610000BC08091C605882349F08091E80080FFC7
:10162000F8CF8091E8008E778093E8000895982F96
:10163000973068F59093E900981739F07091EC00B5
:101640002091ED005091F00003C0242F762F50E040
:1016500021FD02C09F5FECCF3091EB003E7F3093C5
:10166000EB003091ED003D7F3093ED003091EB00C9
:1016700031603093EB007093EC002093ED005093B9
:10168000F0002091EE0027FDE5CF80E008958F70F7
:101690008093E90081E0089520919B0230919C02A3
:1016A0002617370748F06115710539F42091E800D5
:1016B0002E772093E80001C0B901FC0120E06115FC
:1016C000710579F18091C6058823F1F18530F1F13A
:1016D0008091E80083FD3CC08091E80082FD2EC02F
:1016E0008091E80080FFEBCF2091F3008091F20021
:1016F00090E0922B6115710551F08830910538F416
:1017000021912093F100615071090196F3CF21E0FE
:10171000089709F020E08091E8008E778093E80038
:10172000CECF2111CFCF0AC08091C605882361F0AA
:10173000853061F08091E80083FD0AC08091E80067
:1017400082FFF2CF80E0089582E0089583E008955B
:1017500081E00895089580917102089580936B024D
:1017600070936D0260936C028091C605843001F520
:1017700085E08093E9008FEF9091E800815095FD1E
:1017800006C095ED9A95F1F700008111F5CF809193
:10179000E80085FF0DC040E050E063E070E08BE6BC
:1017A00092E00E945D2F8091E8008E778093E800A0
:1017B0000895BC0184E00E94AE0B0895BC0183E053
:1017C0000E94AE0B089522E02093E9002FEF3091A4
:1017D000E800215035FD06C035ED3A95F1F70000DF
:1017E0002111F5CF2091E80025FF0BC040E050E02B
:1017F00065E070E00E945D2F8091E8008E77809315
:10180000E8000895CF93DF9320910A01222339F055
:101810002091690227FF03C060E225E002C068E072
:1018200021E02093E9002FEF3091E800215035FDB1
:1018300006C035ED3A95F1F700002111F5CF209162
:10184000E80025FF1DC0EC0180910A01811105C04F
:1018500040E050E068E070E003C070E040E050E03D
:10186000CE010E945D2F8091E8008E778093E80082
:1018700080E2FE01A2E7B2E001900D928A95E1F7C5
:10188000DF91CF910895AAE2B0E0E9E4FCE00C9486
:101890003832E5E9F2E08DE992E02091F100219300
:1018A0008E179F07D1F780919602833009F463C0A9
:1018B00030F4813071F0823009F49FC0B6C08A30B4
:1018C00009F48BC08B3009F46EC0893009F0ADC0CB
:1018D00020C080919502813A09F0A7C08091E8006C
:1018E000877F8093E8008091990290919A02892BDA
:1018F00021F460E282E792E003C060E080E090E0E3
:1019000070E00E944C0B8091E8008B778093E80098
:101910008CC080919502813209F087C08091990234
:1019200090919A02009719F0039709F07EC0809178
:10193000E800877F8093E8008091E80082FD05C081
:101940008091C6058111F8CF70C02091F30080917D
:10195000F20090E0922B029731F48091F1008130F7
:1019600011F0863021F48091F10080937102809112
:10197000E8008B7756C080919502813A09F055C0F6
:101980008091990290919A02892B09F04EC0809122
:10199000E800877F8093E8008091E80080FFFCCF1B
:1019A00080910A0139C0809195028132F1F58091D0
:1019B000990290919A02892BC1F58091E800877F66
:1019C0008093E8000E94F80A8091970280930A01B0
:1019D00010926F020E941D2E28C0809195028132C4
:1019E00021F58091E800877F8093E8000E94F80A43
:1019F000809198028093700218C080919502813A7C
:101A0000A1F48091E800877F8093E8008091E8004E
:101A100080FFFCCF809170028093F1008091E800FC
:101A20008E778093E8000E94F80A8091E80083FF97
:101A3000E4C18091950290919602492F50E04A307E
:101A4000510508F0DAC1FA01EE59FF4F0C943C350C
:101A5000803821F0823809F0D0C108C0809192020C
:101A600090919302992389F082600FC0809199022E
:101A70008F70873008F0C1C18093E9008091EB003E
:101A800085FB882780F91092E9009091E800977F04
:101A90009093E8008093F1001092F10070C1282F1C
:101AA0002D7F09F0AAC1882319F0823061F0A5C109
:101AB00080919702813009F0A0C1933009F080E055
:101AC000809393022EC08091970281112AC0809149
:101AD00099028F702FEF280F263008F08EC1809367
:101AE000E9002091EB0020FF1CC0933021F480918D
:101AF000EB00806214C09091EB0090619093EB003A
:101B000021E030E0A90102C0440F551F8A95E2F799
:101B10004093EA001092EA008091EB008860809385
:101B2000EB001092E9008091E800877F8093E80045
:101B30000E94F80A62C1811160C1109197021F775B
:101B40008091E3008078812B8093E3008091E8000E
:101B5000877F8093E8000E94F80A8091E80080FF68
:101B6000FCCF8091E30080688093E300111102C0F4
:101B700082E001C083E08093C6053FC18058823077
:101B800008F03BC120919702309198022C3D53E020
:101B9000350779F583E08A838AE289834FB7F89421
:101BA000DE01139620E03EE051E2E32FF0E0509397
:101BB0005700E49120FF03C0E295EF703F5FEF70A4
:101BC0008E2F90E0EA3010F0C79601C0C0968D933A
:101BD0009D932F5F243149F74FBF8091E800877FA5
:101BE0008093E8006AE270E0CE0101960E944C0BFF
:101BF000B4C08091990290919A02432F55274330A7
:101C00005105A9F068F44130510509F405C142308D
:101C1000510509F0F2C084E790E0EAECF2E04BC035
:101C20004132510529F14232510589F1E6C0C9011D
:101C3000992781309105A1F058F0029709F0DDC095
:101C4000E0E5F3E0E4918E2F90E0E0E5F3E030C0D2
:101C5000ECE9F3E0E4918E2F90E0ECE9F3E028C0AA
:101C6000E2E7F3E0E4918E2F90E0E2E7F3E020C0BA
:101C70008430910508F0C1C0880F991FFC01E05D18
:101C8000FE4F0190F081E02D89E090E014C0843097
:101C9000910508F0B2C0FC01EE0FFF1FE85DFE4F9A
:101CA0000190F081E02DDC01AC5DBE4F8C9190E0A5
:101CB000009709F4A2C02091E800277F2093E80054
:101CC00020919B0230919C022817390708F4C90122
:101CD00040E0009789F12091C605222309F43DC018
:101CE0002530D9F12091E80023FD37C02091E8008C
:101CF00022FD2FC02091E80020FFEBCF4091F300A0
:101D00002091F20030E0342B009759F02830310553
:101D100040F444914093F100319601972F5F3F4F7B
:101D2000F3CF41E02830310509F040E02091E80090
:101D30002E772093E800CDCF4111CDCF0AC08091FE
:101D4000C605882351F0853041F08091E80083FD7D
:101D500004C08091E80082FFF2CF8091E8008B7789
:101D60008093E8004AC0803809F047C08091E800BD
:101D7000877F8093E800809194028093F1008091A6
:101D8000E8008E77D3CE811138C080919702909170
:101D90009802992702978CF58091E800877F8093BD
:101DA000E80010919702109394020E94F80A111112
:101DB00006C08091E30087FD02C081E001C084E09D
:101DC0008093C60542E061EC81E00E94170B42E07F
:101DD00061EC82E00E94170B42E261EC85E00E9418
:101DE000170B42E261EC83E00E94170B42E260ECC9
:101DF00084E00E94170B8091C6058091E80083FF64
:101E000010C08091E800877F8093E8008091EB000C
:101E100080628093EB0005C082E190E0EEE3F3E0A6
:101E20004ACFAA96E3E00C9454321F920F920FB659
:101E30000F9211242F933F934F935F936F937F9350
:101E40008F939F93AF93BF93CF93DF93EF93FF93C2
:101E5000C091E900CF708091EC00D82FD17080FD47
:101E6000D0E81092E9008091F000877F8093F00025
:101E700078940E94430C1092E9008091F0008860F1
:101E80008093F000CD2BCF70C093E900FF91EF91CC
:101E9000DF91CF91BF91AF919F918F917F916F9182
:101EA0005F914F913F912F910F900FBE0F901F9018
:101EB0001895E8EDF0E080818E7F80831092E2003B
:101EC0001092DA001092E100A0EEB0E08C918160F7
:101ED0008C9380818F77808319BCA7EDB0E08C91C3
:101EE0008E7F8C9380818F7E808310926E02089506
:101EF000A0E0B0E0EEE7FFE00C943332C8EDD0E0B4
:101F000088818F7E8883E7EDF0E080818160808327
:101F100084E082BF81E080936E0288818E7F888317
:101F200002EE10E0F80110821092DA0081EEC82E65
:101F3000D12CF601108288818F7788838881806810
:101F4000888388818F7D888319BC1092C605109282
:101F50009402109293021092920290EEE92EF12CCC
:101F6000F70180818B7F808388818160888342E054
:101F700060E080E00E94170BF60180818E7F8083F5
:101F8000F801808181608083808188608083F7018F
:101F900080818E7F8083888180618883CDB7DEB722
:101FA000E8E00C944F321F920F920FB60F9211245B
:101FB0002F933F934F935F936F937F938F939F9351
:101FC000AF93BF93EF93FF938091E10082FF09C02D
:101FD0008091E20082FF05C08091E1008B7F8093B9
:101FE000E1008091DA0080FF2AC08091D80080FF54
:101FF00026C08091DA008E7F8093DA008091D9002C
:1020000080FF18C080E189BD82E189BD09B400FE6E
:10201000FDCF81E08093C60580916E0281110FC0D3
:102020000E94590F0E94780F8091E2008460809393
:10203000E20005C019BC1092C60510926E02809194
:10204000E10080FF17C08091E20080FF13C0809103
:10205000E2008E7F8093E2008091E20080618093B5
:10206000E2008091D80080628093D80019BC85E09E
:102070008093C6058091E10084FF30C08091E2002A
:1020800084FF2CC080E189BD82E189BD09B400FED6
:10209000FDCF8091D8008F7D8093D8008091E100A2
:1020A0008F7E8093E1008091E2008F7E8093E2003A
:1020B0008091E20081608093E20080919402882305
:1020C00011F084E007C08091E30087FD02C081E049
:1020D00001C083E08093C6058091C6058091E10030
:1020E00083FF27C08091E20083FF23C08091E1003D
:1020F000877F8093E10082E08093C605109294026E
:102100008091E1008E7F8093E1008091E2008E7FDC
:102110008093E2008091E20080618093E20042E0DF
:1021200060E080E00E94170B8091F000886080934F
:10213000F000FF91EF91BF91AF919F918F917F91AF
:102140006F915F914F913F912F910F900FBE0F9024
:102150001F9018952091E4003091E50095E640919C
:10216000EC00842F817040FF23C08091E80080FD47
:102170001DC08091C605882399F0853099F0809123
:10218000EB0085FD11C04091E4005091E50024175B
:10219000350729F3915011F09A01E1CF84E00895B9
:1021A00082E0089583E0089581E0089580E0089535
:1021B0004091E80042FFDDCF089578941F920F927E
:1021C0000FB60F9211248F939F93AF93BF9380917B
:1021D000650290916602A0916702B0916802019633
:1021E000A11DB11D8093650290936602A0936702C2
:1021F000B0936802BF91AF919F918F910F900FBEE6
:102200000F901F9018959C014FB7F894809165022C
:1022100090916602A0916702B09168024FBF821B45
:10222000930B0895E42FF0E0EE0FFF1FEF52FE4FE7
:102230009081921B97FD9195292F38E1239F212DA5
:102240001124620F08950F931F9310E0F801EE0F11
:10225000FF1FEF52FE4F9081905797FD9195000F11
:10226000111FF801EE52FE4FE081F0E0B097DF0160
:10227000AA0FBB1F8D010E0F1F1F2003D001219F2E
:10228000B00D1124E8E3F0E0E91BF10997FDF395A7
:102290009F01220F331F89010E0F1F1F4003900162
:1022A000419F300D11242A0F3B1F37FF02C02158D8
:1022B0003F4F220F232F221F330B620F1F910F91CD
:1022C00008952091CC0530E1230F08F42FEF60E151
:1022D000822F90E00E940D2BBC0188EB9BE00E94B6
:1022E000153280E090E008950F931F93CF93DF9312
:1022F000D62F072F182FC42F822F0E947D2AEC2F54
:10230000F0E0EE0FFF1FEF52FE4F90819058890FC3
:1023100087FD8195880F682F2CE0629F612D112425
:102320006D0F702F812FDF91CF911F910F91089525
:102330000E94B62108950E9478210895A4E0B0E09B
:10234000E4EAF1E10C942A32782E80911A01871187
:102350000DC02091C805237030E04091190150E074
:1023600081E02417350719F480E001C081E0817015
:1023700080931F018091CD0590911E01981739F02F
:1023800080931E0140E060E080E00E949811EFE041
:102390007E125DC08DE299E20E94B32F8A8342C013
:1023A000F71508F49AC123E0721609F459C02715ED
:1023B00008F4F7C031E0731609F497C0371508F038
:1023C000B6C080911D01382F330F330F380F39837A
:1023D00075E0F72EF30E80E38F1510F460E3F62E10
:1023E0001091CA059091CB059A830091C905B80157
:1023F000892F0E94172BE62ED72EC82E6091CC0570
:10240000600F712F8A810E94172B6A83172F082F64
:1024100029812F1508F4ABC031E03A838FE28F1584
:1024200008F48EC080911D018F5F80931D019A81F9
:10243000911113C582E08093200180911F018111C9
:102440000CC571100AC583E08093200106C5E7150D
:1024500008F46BC1F7E07F12A3CF8CE599E29CCF23
:1024600080911D01982F990F990F980F99839B5F69
:102470009B83913310F0E0E3EB83E090CA05D090AA
:10248000CB052091CC0550E4F52E3F2D329F312D08
:102490001124F32EE981FB81EF1708F042C08981F6
:1024A000082F10E0F801EF5CFD4F908180911E0134
:1024B0008923B9F0F801EE0FFF1FEE52FE4F808125
:1024C00082958F706091C9058F9D600D11247E2DBE
:1024D0008D2D0E94172B462F282F672FC8010E9491
:1024E0009B1199819F5F9983D5CF80911D01282FE2
:1024F000220F220F280F29832B5F2B83213310F00B
:1025000030E33B836091C9057091CA058091CB058A
:102510000E94172B162F072FF82EE981FB81EF174A
:1025200088F021E02A83F03308F47CCF09C0809141
:102530001F01882329F040E060E080E00E949811AC
:102540001A8270CF8981E82FF0E0DF01AF5CBD4FC8
:102550008C9190911E01982331F02F2D412F602FE7
:10256000CF010E949B1199819F5F9983D6CFE9810A
:102570008E2F90E0FC01EF5CFD4F308120911E0119
:10258000232359F030FF04C0202F4A81612F03C05C
:102590002C2D4E2D6D2D0E949B11F981FF5FF9832B
:1025A00037CF85E078124AC080911D01382F330F54
:1025B000330F380F39833B5F3B83313310F080E3B7
:1025C0008B830091C9051091CA05F090CB056091ED
:1025D000CC056695669566958091BF059091C0057E
:1025E0000E940D2B0E947D2A805887FD8195880FBF
:1025F000282F3F2D239F212D1124822FB8010E94C7
:10260000172B162F072FF82EE981FB81EF1708F003
:1026100088CF8981E82FF0E0DF01AF5CBD4F8C915E
:1026200090911E01982331F02F2D412F602FCF0163
:102630000E949B1199819F5F9983E6CF871508F4CB
:1026400049C080911D01382F330F330F380F398364
:102650003B5F3B83313310F080E38B83E090CA050E
:10266000D090CB052091CC0530E4F32E3F2D329F46
:10267000312D1124F32EE981FB81EF1708F051CFA2
:102680008981082F10E0F801EF5CFD4F9081809167
:102690001E018923D9F0F801EE0FFF1FEF52FE4F04
:1026A0006081F69EB001112425E0759567952A9505
:1026B000E1F78091C905680F7E2D8D2D0E94172BA3
:1026C000462F282F672FC8010E949B1199819F5F79
:1026D0009983D1CF88E899E25FCE9BE0791208C058
:1026E0008BE09AE202C087E29AE20E94523056CE14
:1026F000971568F0E9E07E1205C082E49AE20E9434
:10270000CE304CCEE71578F380E69AE2F8CFFDE0C4
:102710007F1203C081E599E23FCEF71518F08AE5F4
:1027200099E23ACE88E499E237CE27E172124FC09F
:1027300080911D01382F330F330F380F3983132F3A
:102740001B5F113308F010E380911F0181111EC03F
:102750006091CC0520E1620F08F46FEF8091BF0516
:102760009091C0050E940D2B6AE070E00E94153226
:10277000892B21F50E949E2A60E30E941C356091FE
:102780001E01892F90E00E948C2418C09981892F06
:1027900090E09C838B83E12EF12C2B813C812E15C4
:1027A0003F0564F460911E018B819C810E948C2402
:1027B000EB81FC813196FC83EB83EFCF31E03A83F0
:1027C00002C091E09A83103308F42CCEB9CE2715BD
:1027D00030F133E1731203C086EE99E286CF3715EC
:1027E00070F081E1781203C084EE9AE288CF8715F9
:1027F00018F08EE199E279CF8AEF99E280CF95E1E6
:10280000791203C08EEB98E204C0971528F080EF90
:1028100098E20E94FD2FC2CD83E291E1FACFEBE175
:102820007E1203C082E191E1B7CDE71508F4A1C0A3
:10283000F9E17F1250C080911D01E82FEE0FEE0FDD
:10284000E80FE983EB5FEB83E13310F0F0E3FB8308
:102850000091CA051091CB05F090C9056091CC0597
:102860006695669566958091BF059091C0050E941A
:102870000D2B0E947D2A805887FD8195880F682F37
:102880002CE0629F612D11246F0D702F812F0E940B
:10289000172B162F072FF82E89819B818917A8F4F3
:1028A0002981E22FF0E0DF01AF5CBD4F8C91909168
:1028B0001E01982331F02F2D412F602FCF010E9450
:1028C0009B1139813F5F3983E7CFE1E0EA839033A1
:1028D00008F4A8CD35CEF71508F448C080911F0143
:1028E00081111EC06091CC0520E1620F08F46FEFEA
:1028F0008091BF059091C0050E940D2B65E070E0AE
:102900000E941532892B09F01BCE0E94AC3260E385
:1029100070E00E94283560911E010E94682410CE4C
:1029200080911D01982F990F990F980F9983192F56
:102930001B5F113308F010E3F981EF2FF0E0FC8307
:10294000EB83E12EF12C8B819C818E159F050CF081
:1029500038CF60911E018B819C810E9468242B815D
:102960003C812F5F3F4F3C832B83EDCF84E791E188
:1029700013CD2DE17212F0C040913103509132031A
:1029800060913303709134038091BF059091C0052D
:10299000A091C105B091C20584179507A607B70796
:1029A00008F4CECD80911F0181110EC080911D01D0
:1029B000982F990F990F980F9983092F0B5F013367
:1029C00008F45CC000E35AC040E060E080E00E9490
:1029D000981101EA12E01C821B828FE7D82E0E9418
:1029E0009E2A81FF05C0F80110821182128220C048
:1029F0000E949E2AC82E0E949E2A8695782F2D2DF1
:102A0000720F08F47FEF8B819C81880F991FEB81F7
:102A1000FC818E0F9F1F9C012F553D4F79016C2D1E
:102A20008091CB050E94172BF7016083718382830D
:102A30002B813C812F5F3F4F3C832B830D5F1F4FCA
:102A40002033310561F6B2CF3981832F90E0FC014C
:102A5000EF5CFD4F308120911E01232361F0FC01CA
:102A6000EE0FFF1FE80FF91FEF55FD4F2281408148
:102A700061810E949B1189818F5F89839981901761
:102A800018F3E1E0EA83003308F01A82003308F417
:102A9000C9CC20E010E001501109822F90E080178E
:102AA0009107CCF4AC01440F551F480F591F4F55E7
:102AB0005D4F0196FC01EE0FFF1F8E0F9F1FFC0163
:102AC000EF55FD4F80819181A281FA01808391832E
:102AD000A2832F5FE2CF0E949E2A7801EE0CFF1C9A
:102AE00081FF09C00E0D1F1DF801EF55FD4F10822B
:102AF0001182128218C00E949E2A89830E949E2AF7
:102B00008695782F2FE7720F08F47FEF0E0D1F1DAB
:102B10000F551D4F69818091CB050E94172BF8013D
:102B20006083718382830E9461110091BF051091BF
:102B3000C0052091C1053091C205DC01CB01800F99
:102B4000911FA21FB31F8093310390933203A09370
:102B50003303B093340366CC721608F07AC08091C8
:102B60001D01982F990F990F890F8B5F8B834091CF
:102B7000BF055091C0056091C1057091C20580915B
:102B80009D0290919E02A0919F02B091A002841795
:102B90009507A607B70708F055C00E949E2A8983AB
:102BA0000E949E2A90E3891BF0F7890F082F10E0FE
:102BB000F801EF5CFD4F80911E019081982309F48C
:102BC00041C0F981F1FF04C020E040E060E013C0A3
:102BD0000E949E2A89830E949E2A8695782F2FE73D
:102BE000720F08F47FEF69818091CB050E94172B4B
:102BF000462F282F672FC8010E949B112091CC05DA
:102C000030E1230F08F42FEF60E1822F90E00E9463
:102C10000D2BBC0184EF91E00E9415328091BF051D
:102C20009091C005A091C105B091C205860F971F74
:102C3000A11DB11D80939D0290939E02A0939F02BF
:102C4000B093A00221E02A833B81303308F4EACB21
:102C500077CC3EE17312C7C080911F01882329F011
:102C600040E060E080E00E94981180911D01982F63
:102C7000990F990F890F8B5F89834091BF05509100
:102C8000C0056091C1057091C20580915F0390916C
:102C90006003A0916103B091620384179507A607B2
:102CA000B70708F099C06091C9057091CA05809175
:102CB000CB050E94172B662E572E482E05E313E0F6
:102CC0002DE731E03C832B8341ED842E41E0942EAF
:102CD000AB80BC806501780132E0332EF701808142
:102CE000F601882369F08081242D462D652D90E022
:102CF0000E949B11F5018581242D462D652D0CC068
:102D0000808120E040E060E090E00E949B11F501AE
:102D1000858120E040E060E090E00E949B11F70197
:102D2000818181937F013A94FFEFCF1ADF0A21E07E
:102D3000A21AB1083110D2CFF8018281EB81FC8157
:102D4000882371F08281242D462D652D90E00E940C
:102D50009B11EB81FC818381242D462D652D0DC0B7
:102D6000828120E040E060E090E00E949B11EB81D6
:102D7000FC81838120E040E060E090E00E949B11B4
:102D80000E949E2A837091E009F090E0F8019283FE
:102D90000D5F1F4F2B813C812A5F3F4F3C832B836C
:102DA0008216930609F094CF0E9461110091BF052D
:102DB0001091C0052091C1053091C205DC01CB0105
:102DC000800F911FA21FB31F80935F039093600336
:102DD000A0936103B093620331E03A838981803329
:102DE00008F420CBADCB8FEF781231C08091BF05B6
:102DF0009091C005A091C105B091C20588279C7033
:102E0000AA27BB272AE0B695A795979587952A9577
:102E1000D1F782309105A105B10571F0833091059C
:102E2000A105B10569F040E00197A105B10511F0D8
:102E300060E008C064E102C044E160E080E003C0FB
:102E400044E164E184E10E94981182E0FDCA80912E
:102E50001D018F5F80931D01EDCA2496E1E10C9462
:102E60004632E8ECF5E085E3808380912101909182
:102E70002201A091230181839283A3838CE3848325
:102E80008FEF858346E050E06CE170E0CF010E9457
:102E9000E9321092C705089580E008959091690283
:102EA00092FF0DC0282F2871283019F4877F846085
:102EB00006C0282F2471243011F48B7F886093FF83
:102EC0000DC0282F2871283119F4877E846106C02F
:102ED000282F2471243111F48B7E886120916A029D
:102EE00020FF0DC0382F3871383019F4877F81608A
:102EF00006C0382F3171313011F48E7F886021FF88
:102F00000DC0282F2871283119F4877E816106C0F1
:102F1000282F2171213111F48E7E886194FD877EE6
:102F200008957E30A0F4663090F494E5899FF00116
:102F3000112486E0789FE00DF11D1124E60FF11DAC
:102F4000EE0FFF1FE056FC4F85919491089580E0AD
:102F500090E00895CF93DF938238910569F1B0F442
:102F60008133910509F477C048F48932910509F459
:102F700069C08A32910509F473C092C08533910506
:102F800009F45BC089339105B9F08AC0833E91058D
:102F900091F138F4803E9105D1F0823E910531F1F6
:102FA0007FC0863E9105D9F1873E9105E9F1843EC7
:102FB000910509F075C028C02091690220FD5BC011
:102FC00021FD59C020916A0223FD61C069C0809132
:102FD000690280FD4AC080916A0280FF4CC08091E6
:102FE000690284FD4EC183EE90E04DC1809169027B
:102FF00082FF3EC0F4CF8091690282FD39C080918A
:103000006A0280FD38C0EBCF80916A0281FF39C02F
:103010008091690284FD35C187EE90E034C18091D2
:10302000690283FF2BC0F4CF8091690283FD26C023
:1030300080916A0281FD25C0EBCF8091690285FDF8
:1030400026C022C08091690285FD1EC080916A025F
:1030500083FF1DC00AC08091690286FD1BC01DC090
:103060008091690286FD19C015C089E390E00BC10B
:1030700082EE90E008C180EE90E005C186EE90E01F
:1030800002C184EE90E0FFC085E390E0FCC089E2DD
:1030900090E0F9C08AE290E0F6C081E390E0F3C0EE
:1030A000811531E5930708F061C0811520E592078D
:1030B000B0F09C012370332741E050E002C0440F80
:1030C000551F2A95E2F7282F2695269580E2289FFE
:1030D00090011124CA01822B932B9D68D4C0883E95
:1030E000910568F5803E910508F0CDC0883A9105BC
:1030F000B8F4853A910548F0855AE82FF0E0E85C8D
:10310000FE4F808190E09064BEC08130910509F44B
:10311000B5C008F4B6C08430910508F4B2C0B3C09D
:103120008F3B910508F0ADC0885AE82FF0E0EE0F14
:10313000FF1FE55CFE4F808191819464A4C08115DE
:1031400030E2930758F4811521E0920708F09BC004
:103150008D3E910508F495C0906595C0811530E4C9
:10316000930708F48EC09F70906A8DC0811525E585
:10317000920708F042C0811534E5930728F0982F94
:103180008827846F906A7FC0811523E59207B0F08D
:103190009C012370332741E050E002C0440F551FCB
:1031A0002A95E2F7282F2695269580E2289F900100
:1031B0001124CA01822B932B9A6865C0811532E5D0
:1031C000930728F4982F8827816F906A5CC09C0130
:1031D0002370332741E050E002C0440F551F2A9569
:1031E000E2F7282F2695269580E2289F900111244A
:1031F000CA01822B932B9C6846C0EC01C11589E55E
:10320000D807B0F4C11528E5D20728F09C2F8827ED
:10321000806F906A38C0C11536E5D30790F58C2FC2
:103220000E944E178F7190E0982F882790622BC0D4
:10323000C1158AE5D80790F48C2F8F700E944E1725
:1032400094E0D695C7959A95E1F7CF70D0E0DC2F42
:10325000CC27D0699E01282BC90115C0CE019056FC
:103260008115904270F48D2F8F710E944E17282F78
:103270002F71CE0199279062922B05C081E090E0DA
:1032800002C080E090E0DF91CF91089568EE7EEF7C
:1032900080E090E00E94173360E082E090E00E94BE
:1032A000F93260E083E090E00E94F9321092DE0390
:1032B00060E084E090E00E94F93264E082E290E015
:1032C0000E94F93260E085E090E00E94F93260E00F
:1032D00086E090E00E94F9326FEF87E090E00E9474
:1032E000F93240E050E0BA0188E090E00E940B33F0
:1032F00060E08DE090E00E94F93240E050E0BA01D9
:1033000088E190E00E940B3360E087E190E00E944A
:10331000F93240E050E0BA018CE190E00E940B33BA
:1033200060E070E080E290E00E94173340E050E0FF
:10333000BA0188E190E00E940B33109229041092A8
:103340002A0410922B0410922C0484E08093290408
:103350004091290450912A0460912B0470912C040F
:103360008FE090E00E940B3340E050E0BA0183E12F
:1033700090E00E940B3308958091DD03811110923B
:10338000DD030895809590916F02892380936F02E9
:10339000089590916F028091DC03982B90936303C2
:1033A0008091DD038823D9F0892B8093630380917A
:1033B0000A01882331F08091690287FF02C08EE103
:1033C00001C086E0E5E6F3E090E0815028F021912D
:1033D0002223D9F39F5FF9CF91110E94BC1940E2DB
:1033E00050E06CEB73E083E693E00E946336892B38
:1033F00021F180E2E3E6F3E0ACEBB3E001900D9263
:103400008A95E1F7E0918C05F0918D053097A9F050
:1034100080910A01882359F08091690287FF07C0D3
:10342000809163038093640386E08093630302804A
:10343000F381E02D83E693E0099508952091BB0385
:10344000809582238093BB03982F977099F430E086
:10345000482F082E000C550B2417350759F0909172
:103460006A0292FF07C08595859585950E94C82DB3
:103470001092BB030895CF93C0916A02C2FB9927B3
:1034800090F9981791F080FBC2F9C0936A0260919D
:10349000690284E090E00E94F9326C2F82E290E0B1
:1034A0000E94F93282E00E941E1ACF910895809105
:1034B000BA0390918903891719F08F5F8770FBCF4A
:1034C00008950F931F93CF93DF9380918803829584
:1034D0008F7009F05AC080918503882309F455C084
:1034E0008091BA03109189036091830370918403E2
:1034F000C0918603D091870391E06F3F09F090E07F
:10350000292F06E0811709F440C0209721F07F3F62
:1035100021F030E003C031E001C0322F90E030FDF7
:1035200031C0089FF001099FF00D1124DF01A6575B
:10353000BC4F11963C911197371324C03C91361320
:1035400021C012963C91129731111CC013964D91D7
:103550005C9114974C1B5D0B483C510598F480918D
:1035600088038F70806180938803E157FC4F8081CE
:103570008F708061808383E893E00E943F050E9402
:10358000571A03C001968770BDCFDF91CF911F916D
:103590000F910895A1E1B0E0E0EDFAE10C94303232
:1035A0008C0185E0F801DE011D9601900D928A954F
:1035B000E1F7F801E28090918303609184034091E8
:1035C0008603509187034115510531F06F3F31F467
:1035D00081E09F3F19F403C081E001C080E0F82F33
:1035E000F1709F2E80FD1BC1F80130812181C380C5
:1035F000D48083E8A82E83E0B82EF0908503F601EE
:10360000E41BF50BFF2009F4C7C080918803E83C58
:10361000F10508F092C0482F407F09F051C06213B5
:1036200011C093130FC0FE2CE1100CC08F7080618D
:1036300080938803C5010E943F0580918803F801AB
:1036400085832AC1C114D10431F02F3F31F481E0C8
:103650003F3F19F403C081E001C080E080FD03C05A
:1036600081E08E2502C080E090E0F82FF170FF2EFF
:1036700080FF1CC08091BA034091890356E08417F3
:1036800009F4E8C090E0589FF001599FF00D112413
:10369000E657FC4F6181261306C06081631303C0A7
:1036A0006281E61203C001968770E9CFFE2CEE20FE
:1036B00009F4F2C08091880381608093880349C037
:1036C000621306C0931304C0E11002C0F80186C063
:1036D000C8010E94E62D882351F1EE2041F120918E
:1036E0008803822F82958F7090E0029774F080910A
:1036F00083039091840398878F831986DB86CA861B
:103700002C87CE0107960E943F0586E0F801A3E8CA
:10371000B3E001900D928A95E1F70E94611A0AC008
:103720006217C9F0C8010E94E62D81111EC0C801B0
:103730000E943F05FF24F394AFC0482F407F81F7DC
:1037400083E893E00E943F0586E0F50111928A9597
:10375000E9F7F12CA1C09313E5CFE110E3CFF80115
:103760008583C8010E943F0554C0EE2001F32091DB
:103770008803822F82958F7090E0029734F28091B7
:103780008303909184039A8389831B82DD82CC8298
:103790002E83CE010196B7CFE83CF105D0F5FE2C83
:1037A000EE2029F2621327C0931325C020918803CD
:1037B00020FD18C0822F82958F70482F50E0411550
:1037C000510581F0F80125834F30510541F08F5F9D
:1037D000982F9295907F822F8F70892B8583C801B7
:1037E0000E943F0586E0F801A3E8B3E001900D9246
:1037F0008A95E1F751C0C8010E94E62D811185CF5D
:1038000080918803816080938803C8010E943F05EE
:1038100043C086E0F50111928A95E9F73DC0EE209C
:1038200009F485CFC8010E94E62DF82E882309F4FB
:103830007ECF86E0F801A3E8B3E001900D928A956F
:10384000E1F780918303909184030E94282D0E94C8
:10385000611A22C03D872E878D859E850E94282D66
:10386000292F22952F70223028F49F7039F0811172
:1038700005C00BC0243028F49F7049F4805E883066
:1038800020F0C8010E943F059F2CF92C05C0F801CB
:103890009581907F99F7F9CF8F2D6196EBE00C948D
:1038A0004C32A0E0B0E0E7E5FCE10C9433328091CB
:1038B000170190911801892BA1F08091DF038F5F90
:1038C0008093DF0381110DC00E94302790E0909318
:1038D000180180931701892B21F40E94A7270E94C9
:1038E000D7240AEE13E07801D0E0C0E087E0C82ECC
:1038F000CC0E8C2F0E9417288C2D0E9417288C2FFD
:103900000E947A288F73F7019081891721F08083B4
:10391000DD24D39401C0D12C8C2D0E947A288F7382
:10392000F7019781891719F0878381E001C080E052
:10393000D82ADD290E946B28CF5FFFEFEF1AFF0A1C
:10394000C730A1F61092E403C091E303CC2309F43D
:10395000C4C00E94AB232091E1033091E203AC018B
:10396000421B530B9A019093E2038093E1034F3F74
:10397000510509F018F4452B19F102C02FEF30E082
:103980001092E3031092E003E091E803F091E90361
:10399000AF01425F5F4F90E030E08081882341F0CB
:1039A000281718F010829C2F03C0821B80833C2FA5
:1039B0003196E417F50789F73093E3039093E0031A
:1039C000DD2309F47BC0E091E803F091E9038091E5
:1039D000E4039091E303AAEFB3E0AF01425F5F4FCE
:1039E00064E1E80128813C91321779F0308131118E
:1039F0000CC060832C9398819227282F30E0292BCC
:103A000081E0232B09F480E091E0319611960F5F5D
:103A10001F4FE417F50729F78093E4039093E3031E
:103A2000C091E4032091C3058091E6039091E703E0
:103A30002223C9F1892B31F425982D9826982E98A8
:103A400027982F988091E6039091E7039170892B36
:103A500079F48091E503882319F026982E9802C006
:103A6000269A2E9A9091E50381E089278093E503B9
:103A70008091E6039091E7038130984750F01092CF
:103A8000C305809128040E9488261092E7031092B3
:103A9000E6038091E6039091E70301969093E70394
:103AA0008093E6031EC0892BE1F01092E703109289
:103AB000E603809128040E94882613C081E090913B
:103AC000E003992309F4ACCF81117DCF0E94AB2391
:103AD0009093E2038093E10376CFD111F7CF80E09A
:103AE000EECF8C2FCDB7DEB7E8E00C944F32ACE5CB
:103AF000B0E0EDE7FDE10C942C3285B7806885BF1E
:103B000085B7806885BF84B7877F84BF0FB6F89478
:103B1000A895809160008861809360001092600099
:103B20000FBE90E080E80FB6F89480936100909308
:103B300061000FBE8CE497E1909363028093620270
:103B40000E94590F0E94780F8091E2008460809358
:103B5000E20078948091C6058823A1F01091E900D5
:103B60001F709091EC00892F817090FD80E8182BD8
:103B70001092E9008091E80083FD0E94430C1F70C1
:103B80001093E90082E084BD93E095BD9AEF97BD64
:103B900080936E000E94302790E0909318018093EC
:103BA00017010E946B280E94B128EAEEF3E0AAEF09
:103BB000B3E011921D9223E0E83FF207D1F78EE0C7
:103BC00090E00E9442358093E8039093E903FC0162
:103BD0000E961192E817F907E1F789EA80938000C1
:103BE00089E08093810024982C983F988AB18F7C3B
:103BF0008AB96E98479A8BB180638BB9769A8FE0B9
:103C000090E00E94DD326093290470932A0480932F
:103C10002B0490932C0467703FEF639FB001112435
:103C2000759567957595679577277093890060936B
:103C3000880070938B0060938A0070938D0060936E
:103C40008C000E94A72780E090E00E94E332883E2B
:103C50009E4F11F00E94461982E090E00E94D532FA
:103C60008093080484E090E00E94D532182F82E20D
:103C700090E00E94D532212F30E0382B30936A0239
:103C80002093690283E090E00E94D5320E94E12DEA
:103C9000809128040E9488260E94D7240E94CA246A
:103CA0000E94CA248091C70581608093C7058BE07C
:103CB00091E090938D0580938C05F8E1EF2EF12C27
:103CC00011E001E08091C605853009F073C050E431
:103CD000B52E63E0A62E70E1C72EE2E1DE2E8091C4
:103CE000C605853009F05EC08091C605843009F4B0
:103CF00036C00E94F52480912D0481110DC00E94D0
:103D00009E1110921A018091C80583708093190149
:103D10000E94F421A092200100932D04109290059E
:103D20000FB6F894A895E09260000FBEB0926000C4
:103D300083B7817F846083BF83B7816083BF7894BA
:103D4000889583B78E7F83BF0FB6F894A89580912E
:103D50006000886180936000109260000FBE8091C7
:103D60009302882309F4BBCF0E94302790E0909300
:103D70001801809317010E946B280E94B128EAEF76
:103D8000F3E0119284E0E830F807D9F70E94511C63
:103D9000EAEFF3E0819181116EC294E0E830F90717
:103DA000C9F79DCF10926F020E941D2E0E943424ED
:103DB00010922D040E94511C49E0A42E44E0B42E20
:103DC000AAEFB3E0F50191918D91892724E0E731C5
:103DD000F20719F08823B9F332C0811130C00E9474
:103DE000AB236C018091F8039091F903C816D906B2
:103DF00009F46BC08FEF64968FAF649765968FAFB1
:103E0000659766961FAE66970E94AB238160782FF8
:103E100068969FAF8EAF689764964FAD649765962E
:103E20005FAD659766966FAD669768968FAD68973C
:103E30000E94BD25D092F903C092F80346C03AEF24
:103E4000832E33E0932ED12CF40151904F01F501D4
:103E50006080652489F1C12C77247394862D872195
:103E600021F16996CFAE69976A96DFAE6A9791E0C5
:103E7000852D872109F490E06B969FAF6B970E9488
:103E8000AB238160782F6D969FAF8EAF6D9769964B
:103E90004FAD69976A965FAD6A976B966FAD6B97FA
:103EA0006D968FAD6D970E94BD25C394770CF6E09B
:103EB000CF12D4CFF5015082D394FFEFAF1ABF0ACF
:103EC0002EE0D212C1CF0E949F230E94F52485E0EC
:103ED000E9E9F5E0DE01119601900D928A95E1F78E
:103EE00010929A0510929B0510929C0510929D05C8
:103EF000DA80D11004C08B81882309F450C08091EE
:103F00009705909198050E9403119C01909193054B
:103F1000992309F4C8C12531310508F440C09F3FF9
:103F200019F09F5F90939305DD2061F00E94382C7B
:103F30001D1414F491E001C09FEF899F802D11247E
:103F400080939A05DB80DD2061F00E94382C1D14DF
:103F500014F491E001C09FEF899F802D112480937C
:103F60009B0530919A053323D1F020919B052223A4
:103F7000B1F045EB3403C0011124992319F090935B
:103F80009A0502C010939A0535EB2303C001112452
:103F9000992319F090939B0502C010939B05DC8038
:103FA000D11004C08D81882309F450C080919505FB
:103FB000909196050E9403119C019091920599237E
:103FC00009F475C12531310508F440C09F3F19F04F
:103FD0009F5F90939205DD2061F00E94182C1D14C4
:103FE00014F491E001C09FEF899F802D11248093EC
:103FF0009C05DD80DD2061F00E94182C1D1414F456
:1040000091E001C09FEF899F802D112480939D0531
:1040100030919C053323D1F020919D052223B1F0EE
:1040200045EB3403C0011124992319F090939C05AA
:1040300002C010939C0535EB2303C0011124992382
:1040400019F090939D0502C010939D0545E050E046
:10405000BE016F5F7F4F89E995E00E946336892B2F
:10406000A9F480919A0581110FC080919B0581115F
:104070000BC080919C05811107C081E090919D0546
:10408000911103C080E001C081E080FD0E94B62C48
:1040900085E0FE013196A9E9B5E001900D928A957F
:1040A000E1F70E94342490911704891721F080933E
:1040B00017040E949F238091C605843009F002CE28
:1040C0008093E9008091E80082FFFCCD8091E800B8
:1040D00085FF24C00E94AA1081111EC020E2C22EBA
:1040E000D12C5E0141E2A40EB11C09C08091F10007
:1040F000F50181935F01F1E0CF1AD10869F0809159
:10410000E80085FDF3CF8091E8008B778093E8008D
:104110000E94AA10882399F391E001C090E0809159
:10412000E8008B778093E800992309F4CBCD89A12F
:104130008230C9F070F48823D1F1813009F0C2CD0A
:104140008EE1C82E84E0D82E94E2A92E94E0B92EF8
:104150003BC0853009F486C0863009F483C08430C2
:1041600009F0B0CD73C08BA19AA1909318048093ED
:1041700019048DA19CA190931A0480931B048FA114
:104180009EA190931C0480931D0442E150E063E2E1
:1041900070E0CE018F5B9F4F0E94C53284E089831F
:1041A0001093C4058EEF8A831092C3055FC01982F5
:1041B0008CE0E9E6F1E0DE01129601900D928A951D
:1041C000E1F78EEF8D8752C00E944124F601819362
:1041D00091936F01AE16BF06B9F7198380911E0443
:1041E0008A8380911F048B83809120048C8380912B
:1041F00021048D83809122048E83809123048F83F8
:104200008EEF88871093C305CE0101960E94872FF9
:1042100042E150E063E270E0CE0101960E94C532B7
:10422000FE01319682E183301CF09189928B01C0AE
:10423000128A815031978F3FB1F742E150E063E23B
:1042400070E0CE0101960E94E9323CCD8091C40518
:10425000882309F437CD80E00E949E2D8AA10E9418
:10426000D52D30CD8FEF898384E08A83CE010196EE
:104270000E94872F27CDC9BCD9BC09B400FEFDCF51
:104280008091D8008F7D8093D8008091E00082607B
:104290008093E0008091E00081FDFCCF10926F02DE
:1042A0000E941D2E1CCD232B09F03BCE78CE213948
:1042B000314008F08DCECACEE8ECF5E0248130E143
:1042C000231B08F420E024838091C705816080933C
:1042D000C7050895E8ECF5E0248130E1230F08F4E8
:1042E0002FEF24838091C70581608093C7050895CF
:1042F000A4E0B0E0EEE7F1E20C94363280339105B1
:1043000088F5122F042FF62EBC01660F771F660F5B
:10431000771F605C794F44E050E0CE0101960E9427
:10432000BC32898183704A81282F30E050E9859F13
:10433000C00111248C5B9B4FFC01E40FF11DB4976D
:10434000F0824B81FC01E40FF11DB49700834C8196
:10435000840F911DFC01B4971083F901EE5BFB4FB4
:1043600081E080832496E5E00C945232FF920F9313
:104370001F93CF93DF93182F062FF42EC0E0D0E0C9
:104380002F2D402F612FCE010E9478212196C0331E
:10439000D105B1F7CDB7DEB7E5E00C9452320F93FB
:1043A0001F93CF93DF93082F000FEB0114E21093BC
:1043B0002E04EFE2F4E0DE018D91819384E0EF338F
:1043C000F807D1F723E030E041E150E06EE274E01D
:1043D000802F0E94F031105F6096143B41F7DF910F
:1043E000CF911F910F91089580914204882329F065
:1043F00064E474E084E70E94CF211092420480912B
:104400004304882329F064ED74E087E70E94CF21FC
:10441000109243040895EEE2F4E06083418323E0C8
:1044200030E042E050E0BF01880F0E94F031089573
:10443000A0E0B0E0EEE1F2E20C943432262F30E05E
:10444000A90148575A4F7A01FA019081911107C08A
:10445000F7011082CDB7DEB7E7E00C945032D82ECA
:10446000F2E16F9FE001112400E010E0F801EC0F91
:10447000FD1FEC59FA4F4081602F8D2D0E940B22B9
:104480000F5F1F4F0231110589F7E2CFCF93DF9302
:10449000C82F4BE06DEF0E940B2240E06AE08C2FAA
:1044A0000E940B228FE39CE90197F1F700C0000006
:1044B00040E060E08C2F0E940B2240E061E08C2FF6
:1044C0000E940B2240E066E08C2F0E940B2240E00D
:1044D0006DEF8C2F0E940B22D0E040E06D2F8C2FCF
:1044E0000E940B22DF5FD231C1F740E06D2F8C2F8D
:1044F0000E940B22DF5FD432C1F740E06D2F8C2F7A
:104500000E940B22DF5FD43BC1F74BE06DEF8C2F95
:104510000E940B2241E06AE08C2F0E940B2240E0B7
:104520006DEF8C2F0E940B22DF91CF910895A4E0B4
:10453000B0E0EDE9F2E20C942D320E94243184E7E0
:104540000E94462287E70E94462200E416E072E1BC
:10455000772EE8E0CE2ED12CEE24E394F12C6624C5
:10456000639444E050E0B801CE0101960E94BC3251
:104570002A8130E0C9018497AB80B12C44E2A41AAF
:10458000B108EC81F0E0B497AC0197FF02C0495F3D
:104590005F4F63E0559547956A95E1F72981237050
:1045A00030E0729EB001739E700D11246C597A4FE9
:1045B0004B01840E911CB6010E942835D70102C020
:1045C000AA0FBB1F8A95E2F7CD01D4019C91892BDC
:1045D0008C93C501B7FC079653E0959587955A953E
:1045E000E1F7729EA001739E500D11244C595A4F51
:1045F0004A01880E911CC501B6010E942835A70109
:1046000002C0440F551F8A95E2F7CA01D4019C915C
:10461000892B8C93CF01F7FD079643E095958795FD
:104620004A95E1F7729EA001739E500D11244C59DA
:104630005A4F5A01A80EB11CCF01B6010E9428356D
:10464000F70102C0EE0FFF1F8A95E2F7CF01D501F7
:104650009C91892B8C93F901E857FA4F60820C5F8B
:104660001F4FB7E000301B0709F07BCF60E084E705
:104670000E94182261E087E70E9418222496EEE04B
:104680000C944932E8ECF5E0438120E1421B08F448
:1046900040E08181628190E00E94342F0895E8EC2F
:1046A000F5E0438120E1420F08F44FEF8181628100
:1046B00090E00E94342F0895E8ECF5E0628120E15B
:1046C000621B08F460E08181438190E00E94342FF6
:1046D0000895E8ECF5E0628120E1620F08F46FEFE5
:1046E0008181438190E00E94342F0895E8ECF5E049
:1046F000818190E04381628108970E94342F089560
:10470000E8ECF5E0818190E04381628108960E94A7
:10471000342F08958091C80586958695815009F4B7
:104720008EE10E94442F08958091C8058695869554
:104730008F5F8F3108F081E00E94442F08952FB7DA
:10474000F894609165027091660280916702909181
:1047500068022FBF08952FB7F89480916502909159
:104760006602A0916702B09168022FBF08951F9260
:104770000F920FB60F9211248F939F93AF93BF9315
:1047800080919005811113C080916502909166021D
:10479000A0916702B09168024196A11DB11D80935E
:1047A000650290936602A0936702B0936802BF917E
:1047B000AF919F918F910F900FBE0F901F90189502
:1047C00020910A012223C9F02091690227FF15C018
:1047D000262F2695269526952E31C8F4FC01E20F4A
:1047E000F11D677081E090E001C0880F6A95EAF7DB
:1047F00080959281892382830895FC010696228107
:10480000621301C012823196E817F907C1F70895C3
:1048100020918E0530918F052817390771F09093FC
:104820008F0580938E05E0918C05F0918D05309772
:1048300021F00084F185E02D0995089520918A05E5
:1048400030918B052817390771F090938B05809371
:104850008A05E0918C05F0918D05309721F0068056
:10486000F781E02D09950895E0918C05F0918D0573
:10487000309729F00190F081E02D0995089580E0AE
:104880000895CF93DF930E94AC3266E070E00E94FF
:104890002835D82F0E94AC326EE070E00E94283597
:1048A000C82F6D2F782F80E00E9491170497C5972D
:1048B00018F48D2F9C2F02C00E944124DF91CF91CC
:1048C0000895882311F0FA0101C0FB0109950895AC
:1048D0001F93CF93DF93FC01EF5CFD4F2081622398
:1048E000B9F0EC010E94AC32182F0E94AC328F77E5
:1048F000782F20E8720F08F47FEF612F8091CB05AD
:104900000E94172B462F282F672FCE010E949B1144
:10491000DF91CF911F910895A0E0B0E0E2E9F4E2C9
:104920000C943432EC01FC01EF5CFD4F9081692363
:1049300049F1D090CA050091CB051091C905E12E2F
:10494000F12C0E949E2A282FC7018C549F4F68E6A5
:1049500071E00E9428358E199F0997FD0396959561
:104960008795959587952370612F289F600D112459
:104970007D2D802F0E94172B462F282F672FCE01C9
:104980000E949B11CDB7DEB7E7E00C9450320E9435
:10499000442F08958091C805837011F4109220016E
:1049A0008091C8058C7F81608093C80508950E941E
:1049B000972280E090E00E94E332883E9E4F21F0F3
:1049C0000E9446190E94311746E050E06CE170E009
:1049D00088EC95E00E94C5321092C7058091C80509
:1049E0008C7F11F40E94311708950F931F93CF937A
:1049F0000E949F23609324047093250480932604CF
:104A00009093270420912D04211108C0C091C8055E
:104A10002C2F237019F0C695C69501C0C0E02091D7
:104A200020012130A1F038F0223009F46AC023308F
:104A300009F474C09EC010921D016093BF0570936D
:104A4000C0058093C1059093C20581E064C08C2F9E
:104A50000E949E11CC2309F48CC08091290483FD0F
:104A600088C08091280490E0A0E0B0E0AC01BD01D6
:104A7000F4E07695679557954795FA95D1F74115E6
:104A800051056105710521F4AC01BD0180E001C053
:104A900084E08A019B01E2E03695279517950795FA
:104AA000EA95D1F7011511052105310519F08E5F41
:104AB000B901A8017695679557954795452B462BE3
:104AC000472B09F08F5F813059F038F0823069F060
:104AD000833071F483E090E005C080E090E002C094
:104AE00081E090E00E94B22644C082E090E0FACFDC
:104AF0008091CD0581113DC040E060E00E94981199
:104B000038C0C0931A018091C80583708093190141
:104B10000E94F42183E0809320012BC08091C7057F
:104B2000882351F046E050E06CE170E088EC95E0BD
:104B30000E94E9321092C7054091BF055091C0050F
:104B40006091C1057091C2052FB7F89480916502FC
:104B500090916602A0916702B09168022FBF841BFA
:104B6000950BA60BB70B4A97A105B10510F0109253
:104B70002001CF911F910F910895A7E1B0E0E3ECE0
:104B8000F5E20C9438324B8B5C8B6D8B7E8B8F8B6C
:104B900061111092DC0386E09E01235F3F4FD90133
:104BA000E82F1D92EA95E9F795E0FE017396D90189
:104BB00001900D929A95E1F79C894E895F897B89D6
:104BC0007D879E876F87598B488BF901DE01179689
:104BD00001900D928A95E1F7CE0107960E94CA1ABC
:104BE00081113EC086E0FE013796DE0111960190EC
:104BF0000D928A95E1F7FF81E8856A857B856115CD
:104C0000710531F0EF3F31F481E0FF3F19F403C04B
:104C100081E001C080E080FD23C02091890330E065
:104C2000C9010196877099274091BA0350E0841713
:104C3000950779F1F983EA837D836C8396E0929FEF
:104C4000D001939FB00D1124A657BC4FFE013196A1
:104C500001900D929A95E1F7809389030E94571A6B
:104C600016E08091BA0390918903891709F1189F82
:104C7000C001112486579C4F0E94CA1A8823C1F094
:104C80008091BA0390E00196877099278093BA03C8
:104C9000E8CF10926F020E941D2E1092890310928D
:104CA000BA03E3E8F3E086E0DF011D928A95E9F7B5
:104CB0006796E3E00C945432982F92959F7019F008
:104CC000892F24E001C020E0982F9695969511F049
:104CD0002E5F892F982F969509F02F5F822F0895C8
:104CE00010926F020E941D2E2FEF84E39CE0215052
:104CF00080409040E1F700C000009AE088E10FB6E4
:104D0000F894A895809360000FBE90936000FFCF49
:104D1000CF93C82F0E945C2656985E9825982D98B0
:104D200026982E9827982F9890E0FC013197E7302D
:104D3000F105A8F4E459FF4F0C943C35259A2D9ABF
:104D40000EC0259A2D9A269A2E9A09C0259A2D9A38
:104D500004C0259A2D9A269A2E9A279A2F9A8C2F3C
:104D6000CF910895A0E0B0E0E8EBF6E20C942A328F
:104D700020E9289F7001299FF00C1124C0E0D0E0A9
:104D800000E010E067018FEFC81AD80A570182E0EF
:104D9000A80EB11CF701EC0FFD1FE050F94F649114
:104DA000F601EC0FFD1FE050F94F7491F501EC0F87
:104DB000FD1FE050F94F8491611107C0711105C0CA
:104DC000811103C020E040E03CC00E94172B962ECA
:104DD000372E882E6091CB0570E080E090E00E9435
:104DE000213420E030E04FE753E40E9480332B0170
:104DF0003C01682D70E080E090E00E942334A30124
:104E000092010E94AF340E94F233862E692D70E029
:104E100080E090E00E942334A30192010E94AF340D
:104E20000E94F233962E632D70E080E090E00E94A5
:104E30002334A30192010E94AF340E94F233282D43
:104E4000492DC8010E949B110F5F1F4F2396C03947
:104E5000D10509F09FCFCDB7DEB7E1E10C94463222
:104E600080E290E090931801809317018091910562
:104E700081110EC00E94243181E0809391052FEFB3
:104E800083ED90E3215080409040E1F700C00000A6
:104E900060E570E080E40E942A31909318018093CD
:104EA0001701892B09F04EC060E570E080E00E9498
:104EB0009D319093180180931701892B09F042C00E
:104EC00060E570E080E00E949D319093180180932E
:104ED0001701892BB9F560E570E08FE30E949D31E1
:104EE0009093180180931701892B61F50E9411326C
:104EF00060E570E080E40E942A319093180180936D
:104F00001701892BF9F460E570E08CE00E949D3177
:104F10009093180180931701892BA1F460E570E04C
:104F200080E00E949D319093180180931701892B96
:104F300049F460E570E08FE30E949D319093180181
:104F4000809317010E941132809117010895CF9329
:104F5000DF9356985E9825982D9826982E98279836
:104F60002F98C8E8D0E08FEF90E099838883AAE873
:104F7000B0E011969C938E93ECE8F0E091838083EF
:104F8000259A2D9A2FEF80E792E0215080409040A3
:104F9000E1F700C00000269A2E9A2FEF80E792E0FA
:104FA000215080409040E1F700C00000279A2F9ADE
:104FB0002FEF80E792E0215080409040E1F700C061
:104FC000000025982D982FEF80E792E02150804037
:104FD0009040E1F700C0000026982E982FEF80E760
:104FE00092E0215080409040E1F700C000002798F7
:104FF0002F988091290487702FEF829FC001112480
:105000009595879595958795992799838883119686
:105010009C938E939183808356985E9825982D98C3
:1050200026982E9827982F98DF91CF910895CF93A7
:10503000E82F873080F58091170190911801892B16
:1050400009F047C0CE2F60E570E080E40E942A316D
:105050009093180180931701892BD1F460E570E0DB
:1050600082E10E949D319093180180931701892B52
:1050700079F481E090E001C0880FCA95EAF760E515
:1050800070E080950E949D319093180180931701E4
:105090000E9411321EC090E0FC013797E730F10505
:1050A000C0F4ED58FF4F0C943C35209A289811C05D
:1050B000219A29980EC0229A2A980BC0239A2B98DD
:1050C00008C0529A5A9805C0539A5B9802C03E9AFB
:1050D0004698CF9108952098289821982998229849
:1050E0002A9823982B9852985A9853985B983E98F0
:1050F00046980895CF93873040F58091170190919D
:105100001801892B59F560E570E081E40E942A318D
:105110009093180180931701892B11F0C0E011C002
:1051200080E590E00E94CC3197FF05C09093180174
:1051300080931701F3CFC82FC095109218011092D9
:1051400017010E9411328C2F0AC09FB18FB1807F4E
:10515000869586959370892B809501C080E0CF91CC
:1051600008958098889A8198899A84988C9A8598CD
:105170008D9A86988E9A87988F9A08950F931F9389
:10518000522F10E0F801EE0FFF1FEE52FE4FE081AC
:10519000F0E0B097EE0FFF1F9F015203D001539F25
:1051A000B00D1124000F111FF801EF52FE4F0081C6
:1051B00010E000571109000F111F40039001419F9B
:1051C000300D11242A0F3B1F37FF02C021583F4FDB
:1051D000220F232F221F330B620F1F910F9108956F
:1051E0000F931F93522F10E0F801EE0FFF1FEE52A6
:1051F000FE4FE081F0E0B0979F015203D001539F32
:10520000B00D1124000F111FF801EF52FE4F008165
:1052100010E00057110940039001419F300D112407
:105220002A0F3B1F37FF02C021583F4F220F232F69
:10523000221F330B620F1F910F910895EF920F936E
:105240001F9393E0099F80011124159507956E2DFA
:10525000600F1F910F91EF900895A22F50E0FA0177
:10526000EE0FFF1FEE52FE4F9081905297FD9195E9
:10527000440F551FFA01EF52FE4F3081232F30E0CB
:105280002A1B3109290F311D97FD3A95620F0895A8
:10529000E42FF0E0EE0FFF1FEE52FE4F6081621B25
:1052A0000895E42FF0E0EE0FFF1FEF52FE4F6081F4
:1052B000621B0895622F0895E42FF0E0EE0FFF1FA8
:1052C000EF52FE4F408134EE439F412D1124E82FD1
:1052D000F0E050E0445E5F4FDA01A21BB1099D018E
:1052E000B7FF03C031952195310993E0220F331F99
:1052F0009A95E1F7AF01421B530B9A0157FF02C089
:1053000020E030E0582F259F212D1124822F089571
:10531000E42FF0E0EE0FFF1FEF52FE4F408134EE1E
:10532000439F412D1124E72FF0E050E0445E5F4F92
:10533000DA01A21BB1099D01B7FF03C03195219588
:10534000310993E0220F331F9A95E1F7AF01421B19
:10535000530B9A0157FF02C020E030E0279F212D18
:105360001124722F0895FC019B01009721F477FF0F
:105370002BC080E80895AC0197FF04C0442755274F
:10538000481B590BB901640F751F37FD0CC0241B56
:10539000350BC901A5E0880F991FAA95E1F70E9476
:1053A000283580E20CC0CB0165E0880F991F6A9513
:1053B000E1F7BA01621B730B0E94283580E6861B59
:1053C000F7FF03C08195089580E00895EF920F9351
:1053D000CF93DF93D72FC82FC9010E19BA010E94AE
:1053E000B329602F681B7D2F8C2FDF91CF910F91F8
:1053F000EF9008950F93CF93DF93D72FC82FC90154
:10540000BA010E94B329682F600F7D2F8C2FDF9186
:10541000CF910F910895EF920F931F93CF93DF9346
:10542000D62FC72F182FC9010E19010FBA010E94DC
:10543000B329081B202F219F212D1124822F6D2F8E
:105440007C2FDF91CF911F910F91EF900895EF92F4
:105450000F931F93CF93DF93D62F172FC82FC90118
:105460000E19070FBA010E94B329702F781B719F84
:10547000712D11246D2F8C2FDF91CF911F910F91E2
:10548000EF900895FF920F931F93CF93DF93F62E23
:10549000D72F182FC901C12FC01BBA010E94B329F1
:1054A000982F990F890FC81B2C2F219F212D112474
:1054B000822F6F2D7D2FCDB7DEB7E5E00C945232F1
:1054C000FF920F931F93CF93DF93F62E172FD82FB2
:1054D000C901C72FC01BBA010E94B329982F990F89
:1054E000890F7C2F781B719F712D11246F2D8D2FAB
:1054F000CDB7DEB7E5E00C945232482F982F46FD29
:105500009095E92FEF739F7046FD9F5FE295EF70D6
:10551000EE0FF0E0EB58FE4F2181299F802D212DC9
:10552000112482958F702295207F822B3081982FB5
:10553000930F892F47FD81958058089540911B0155
:1055400050911C0125E038E0429FC001439F900D1F
:10555000529F900D1124875E994C90931C0180936B
:105560001B01890F0895BC018230910508F408954C
:10557000613E8EE1780748F49B0195E036952795CA
:105580009A95E1F748E0420F01C04FEF91E0242FD8
:1055900030E0290F311D35952795229FF001239F7B
:1055A000F00DF00D11246E177F0718F44FEF420F26
:1055B00004C02F3F39F091E0920F491740F78FEF69
:1055C000890F08958FEF08950F93CF93DF93D72F0F
:1055D000C82F47FD4195E8E3F0E0CF01841B910916
:1055E00047FD9395889FB001899F700D700D112420
:1055F000229FC001239F900D900D1124860F971FAD
:105600000E94B32A682F660F860F682F600F7D2FC8
:105610008C2FDF91CF910F91089520E030E0869F8D
:10562000212D969F200D311D1124C9010895A0E060
:10563000B0E0EDE1FBE20C943332F62E472FE82F79
:10564000F0E0711106C0E05CF64F8491782F682F6E
:1056500073C0272F30E0E05CF64FE491FE2F0E2F51
:1056600010E056E0659FC0011124CFEFD0E0BE01ED
:105670000E9415325BEA5603C001579F900D11241A
:105680008F0D911D8F0D911D982F990F980F7E01F1
:10569000E21AF30AE09ED001E19EB00DF09EB00D3B
:1056A00011248B2F499FA0011124452F55277E01DE
:1056B000E41AF50AE09EA001E19E500DF09E500D07
:1056C00011246E01C91AD108C29E7001C39EF00C4C
:1056D000D29EF00C11242F2D3327C21BD30BC09F59
:1056E0009001C19F300DD09F300D1124932F623057
:1056F000710591F048F461157105E1F061307105B3
:10570000B9F49E2FE52F16C06430710569F040F0A2
:105710006630710579F00CC09E2FEB2F832F0AC0E5
:10572000EB2F8F2F952F06C09B2F8E2FE32F02C0BC
:105730009B2F852F7E2F692FCDB7DEB7E8E00C9425
:105740004F328D3E39F490919B0597FF35C01092F2
:105750009B0559C08E3E29F490919B051916BCF308
:105760002BC090919A058F3E29F497FF25C0109287
:105770009A0549C0803F19F41916CCF31DC09091C9
:105780009C05893F29F41916BCF410929C053BC076
:105790008A3F19F497FF10C0F8CF8B3F39F49091EE
:1057A0009D0597FF09C010929D052DC08C3F21F4E7
:1057B00090919D051916BCF39FE0980F983080F4E6
:1057C00021E030E0A90102C0440F551F9A95E2F78D
:1057D000CA0180959091990589238093990513C0FA
:1057E0008D3F21F4809194058E7F0BC08E3F21F474
:1057F000809194058D7F05C08F3F29F48091940599
:105800008B7F8093940580919A05811106C08091C9
:105810009B05811102C01092930580919C05811116
:1058200006C080919D05811102C0109292050895D5
:105830008091940580FD18C081FD14C082FD16C0C2
:1058400080919205882381F08C3380F427E0829F39
:10585000C00111246CE370E00E942835862F672B6D
:1058600019F005C083E0089581E0089587E0089568
:105870008091940580FD17C081FD17C082FD19C07D
:1058800080919305882399F08C3398F428E3829FC4
:10589000C00111246CE370E00E942835862F672B2D
:1058A00049F481E008958EE008958CE1089588E040
:1058B000089588E308958D3E21F40E94382C819547
:1058C00004C08E3E29F40E94382C80939B050895D5
:1058D0008F3E21F40E94382C819504C0803F29F42A
:1058E0000E94382C80939A050895893F19F40E94EC
:1058F000182C05C08A3F31F40E94182C81958093A2
:105900009C0508958B3F21F40E94182C819504C0BA
:105910008C3F29F40E94182C80939D0508959FE0E8
:10592000980F983078F421E030E0A90102C0440FCC
:10593000551F9A95E2F7CA0190919905892B80939A
:10594000990508958D3F21F48091940581600BC0E5
:105950008E3F21F480919405826005C08F3F29F429
:105960008091940584608093940508950E94AB23F0
:1059700020919A05211104C020919B05222321F03A
:10598000909398058093970520919C05211104C060
:1059900020919D05222321F09093960580939505F3
:1059A000E0918C05F0918D05309731F00480F58100
:1059B000E02D89E995E00995089580E090E00E9446
:1059C0001E2480E090E00E9408241092DC030E94D4
:1059D000C919E9E9F5E085E0DF011D928A95E9F74B
:1059E0001092930510929205109294050E94B62C85
:1059F0000895CF92DF92FF920F931F93CF93DF937F
:105A00006C01009128048091DE03082BC7E0D0E0F0
:105A100010E0C8010C2E02C0959587950A94E2F714
:105A200080FD04C02197A8F7F12C09C0FC2EB60117
:105A30008C2F0E9491170E94AA17019799F38F2D1E
:105A4000DF91CF911F910F91FF90DF90CF9008953C
:105A5000CF93DF93EC010E94F92CBE010E949117B5
:105A60000E94AA17DF91CF910895292F9E3078F5D3
:105A7000863068F590E036E0239F800D911D11245B
:105A8000682F677023E0969587952A95E1F7FC01CA
:105A9000EE0FFF1FE80FF91FE256FA4F40E050E00B
:105AA00080E0219130E0062E02C0369527950A94B9
:105AB000E2F721703327042E01C0220F0A94EAF77F
:105AC000822B4F5F5F4F4330510559F7089580E0B7
:105AD0000895292F9E3088F5863078F590E036E0DD
